:020000040800F2
:10000000C006002089010008D9100008D11000089E
:10001000D510000845020008F1100008000000009B
:10002000000000000000000000000000E5100008D3
:100030004902000800000000E1100008E910000873
:10004000A3010008A3010008A3010008A301000800
:10005000A3010008A3010008A3010008A3010008F0
:10006000A3010008A3010008A3010008A3010008E0
:10007000A3010008A3010008A3010008A3010008D0
:10008000A3010008A3010008A3010008A3010008C0
:10009000A3010008A3010008A3010008A3010008B0
:1000A000A3010008A3010008A3010008A3010008A0
:1000B000A3010008A3010008A3010008A301000890
:1000C000A3010008A3010008A3010008A301000880
:1000D000A3010008A3010008A3010008A301000870
:1000E000A3010008A3010008A301000800F002F822
:1000F00000F03AF80AA090E8000C82448344AAF188
:100100000107DA4501D100F02FF8AFF2090EBAE885
:100110000F0013F0010F18BFFB1A43F0010318473B
:100120002C1500004C150000103A24BF78C878C187
:10013000FAD8520724BF30C830C144BF04680C60ED
:10014000704700000023002400250026103A28BF35
:1001500078C1FBD8520728BF30C148BF0B60704739
:100160001FB51FBD10B510BD00F031F81146FFF7E7
:10017000F7FF00F0BFFF00F04FF803B4FFF7F2FF06
:1001800003BC00F057F800000948804709480047C1
:10019000FEE7FEE7FEE7FEE7FEE7FEE7FEE7FEE737
:1001A000FEE7FEE704480549054A064B7047000094
:1001B000ED100008ED000008C0000020C00600207F
:1001C000C0020020C002002070477047704775468B
:1001D00000F02CF8AE4605006946534620F00700B3
:1001E000854618B020B5FFF7DDFFBDE820404FF091
:1001F00000064FF000074FF000084FF0000BAC4630
:10020000ACE8C009ACE8C009ACE8C009ACE8C0097A
:1002100021F007018D46704710B50446AFF300800A
:100220002046BDE81040FFF7A8BF00000048704717
:100230001000002001491820ABBEFEE72600020096
:1002400070470000FEE7000070470000B0B50446AC
:1002500000F024F9054640F20000C2F200000078E8
:10026000611C18BF044400BF00F018F9401BA042F5
:10027000FAD3B0BD2DE9F04F82B00E68002E00F029
:10028000038141F20042C4F20102042340F2004E15
:10029000904208BF03234FF6FF7CC4F2010E009387
:1002A00000240123C1F2100C4FF0000A4FF00009A6
:1002B00049E000BF012704F00C030F229A402BEA0B
:1002C000020207FA03F34FEA9A051A4346F825207B
:1002D000D1F804B040F20C455FEACB22DEF80820EA
:1002E00054BF22EA080242EA0802C4F20105CEF82D
:1002F00008202A685FEA8B2354BF22EA080242EAF8
:1003000008022A605FEA8B33DEF8042054BF22EA39
:10031000080242EA08025FEACB33CEF80420DEF896
:1003200000204FF0010354BF22EA080242EA08020B
:10033000CEF800200E680AF1010A36FA0AF204F13A
:10034000040400F0A18003FA0AF816EA080FF1D0BD
:100350004E68664512DC122E56D8DFE806F0350BE3
:100360004549555555555555555555555555554D61
:10037000510000BFD1F80C9046E000BF4FF6FF726D
:10038000C1F2210296420FDC0022C1F21102964214
:100390001AD00022C1F21202964215D00022C1F2F8
:1003A0002102964210D02FE00022C1F22202964292
:1003B0000AD00022C1F23102964205D00022C1F2D9
:1003C0003202964220D100BF8A684AB1012A14BF86
:1003D000C0F81480C0F810804FF0080914E000BF86
:1003E0004FF0040910E000BFCA6802F108090BE0F1
:1003F0004FF0000908E000BFCA6802F1040903E0F9
:10040000CA6802F10C0900BF22460646BAF1080F7D
:1004100024BF203A043637680F25954027EA0505A2
:1004200009FA02F22A433260CA79D2067FF582AF16
:1004300041F21803C4F202031A68AEF57E7642F068
:1004400001021A601A6802F001020192019A2AF070
:10045000030256F802B040F60002C4F201029042D4
:1004600010D040F60042C4F2010290423FF422AFA5
:1004700041F20002C4F20102009F904208BF02272D
:1004800019E700BF002716E702B0BDE8F08F0000B3
:10049000002A08BF090401617047000040F2B8005B
:1004A000C2F200000068704740F2000040F2B8015C
:1004B000C2F20000C2F2000100780A68104408602D
:1004C0007047000080B542F20000C4F202000168EB
:1004D00041F010010160032000F072F80F2000F0DD
:1004E00005F800F027F8002080BD000070B540F24C
:1004F0000006C2F2000640F208013278C2F20001A2
:100500004FF47A730968B3FBF2F20446B1FBF2F1DF
:10051000084600F035FB0F2C4FF0010508D838B91C
:100520004FF0FF3021460022002500F01DF87460D6
:10053000284670BD82B041F21800C4F20200016882
:1005400041F001010160016801F00101019101998F
:10055000416841F080514160406800F08050009057
:10056000009802B07047000010B54EF60C5CCEF259
:10057000000CDCF80030C3F3022E8EF00704042CCC
:1005800028BF0424BEF103034FF0FF3E0EFA04F42B
:1005900038BF0023A14399400EFA03F39A43114355
:1005A00000F00F0200F160430901043A03F56443CF
:1005B0006244002848BF02F10C03197010BD00000E
:1005C0004EF60C51CEF200010A684FF6FF031A40B6
:1005D00060F30A2242F0806040F0FD7008607047CE
:1005E000704700002DE9F04381B0002800F08580BD
:1005F00042F20008C4F202080446D8F800000D4692
:1006000000F0070088420CD2D8F8000020F0070064
:100610002843C8F80000D8F8000000F00700A842FE
:100620006BD1206841F204098107C4F2020917D591
:10063000410705D5D9F8001041F4E061C9F8001070
:10064000010705D5D9F8001041F46051C9F8001030
:10065000D9F80010A26821F0F0011143C9F8001088
:10066000C00741D1D8F8000000F00700A8420CD91B
:10067000D8F8000020F007002843C8F80000D8F898
:10068000000000F00700A84237D12068410707D5D5
:10069000D9F80010E26821F4E0611143C9F80010B4
:1006A000000708D5D9F80000216920F4605040EA1D
:1006B000C100C9F80000D9F8002002F00C00082899
:1006C00041F20020C0F27A0050D141F23A63C2F305
:1006D0008341C0F60003595CD2033BD440F60010BE
:1006E000C0F23D00484341E0606802280AD001287A
:1006F0002AD159F8041C890308D4012001B0BDE8AF
:10070000F08300BF59F8041C8901F6D5D9F8001010
:1007100021F003010843C9F80000FFF7BFFE0646B9
:1007200041F28837D9F80000616800F00C00B0EBA6
:10073000810F97D0FFF7B2FE801BB842F2D9032099
:1007400001B0BDE8F08300BF59F8041C8907D4D577
:10075000DCE700BFD9F8002041F23863C2F3404221
:10076000C0F600039A5C4843B0FBF2F0D9F80010E1
:1007700041F22862C1F30311C0F60002515C40F25D
:10078000080220FA01F140F20400C2F20000006801
:10079000C2F200021160FFF7A9FE002001B0BDE81F
:1007A000F08300004C20C4F2422001210160704718
:1007B00010B541F20804C4F202042068000658BFD4
:1007C00010BDFFF70DFF8020A07010BD2DE9F04196
:1007D00082B0002868D00446007841F20006C007C5
:1007E000C4F2020625D0706800F00C0004281BD06B
:1007F000706800F00C00082802D17068C00313D4A0
:100800006068002800F06881B0F5A02F00F07C81BE
:10081000B0F5803F00F07C81306820F4803030609B
:10082000306820F4802076E13068800301D560686C
:10083000D0B32078800718D5706810F00C0F07D05F
:10084000706800F00C0008286ED17068C0036BD48B
:100850003068800702D52069012825D13068616998
:1008600020F0F80040EAC1003060207800071FD473
:100870002078400732D4E56995B1706800F00C002B
:10088000082840F08F80012D0ED07068216A00F496
:1008900080328A4208D1616A00F47010884203D124
:1008A000002002B0BDE8F081012002B0BDE8F08177
:1008B000A069002862D00020C4F242200121C0F8C3
:1008C0008014FFF7EBFD0546706A800700F18C800D
:1008D000FFF7E4FD401B0228F6D92AE1F06910F089
:1008E000805808D1F06940F08050F061F06900F064
:1008F00080500090009847F20007C4F20007386863
:10090000C00529D4386840F480703860FFF7C6FD10
:10091000054600BF3868C0051ED4FFF7BFFD401B69
:100920006428F7D905E100BF2069002840F20000E3
:10093000C4F2422000F0828001210160FFF7AEFD89
:10094000054600BF306880073FF588AFFFF7A6FD7A
:10095000401B0228F6D9ECE0E068002800F0808017
:10096000052800F09780012800F09880306A20F078
:1009700001003062306A20F0040092E00020C4F2EE
:1009800042200021C0F88014FFF788FD054600BF13
:10099000706A80077FF56CAFFFF780FD401B02286F
:1009A000F6D9C6E00027C4F2422700203866FFF7D8
:1009B00075FD022D05460BD13068800140F1BE80E7
:1009C000FFF76CFD401B02284FF00300F4D968E7E5
:1009D000306880017FF564AFFFF760FD401B02289F
:1009E0004FF00300F4D95CE740F20800C2F20000C7
:1009F000006844F6D351C1F26201A0FB0101480A2C
:100A0000019000BF00BF0198411E002801913FF4F2
:100A10002FAF00BF0198411E002801913FF428AF7D
:100A200000BF0198411E002801913FF421AF00BF93
:100A30000198411E00280191E4D119E700210160CD
:100A4000FFF72CFD054600BF306880077FF50DAF2E
:100A5000FFF724FD401B02284FF00300F4D920E7E4
:100A6000306A20F001003062306A20F00400306209
:100A7000FFF714FD054641F2883700BF306A800752
:100A800020D5FFF70BFD401BB8424FF00300F5D90E
:100A900007E700BF306A40F004003062306A40F07F
:100AA00001003062FFF7FAFC054641F2883700BFCB
:100AB000306A800706D4FFF7F1FC401BB842F7D933
:100AC00037E000BFB8F1000F7FF4D5AEF06920F039
:100AD0008050F061CFE600BF306820F48030306095
:100AE000306820F480203060FFF7D8FC054600BF56
:100AF000306880037FF59DAEFFF7D0FC401B642873
:100B00004FF00300F4D9CCE6306840F48020306028
:100B1000306840F480303060FFF7C0FC054600BF0D
:100B2000306880033FF585AEFFF7B8FC401B6428B2
:100B3000F6D9032002B0BDE8F08100BF206AB0F50D
:100B4000803F05D17168A26821F4003111437160C2
:100B50007168626A21F474111143084370600120C6
:100B60003866FFF79BFC0446306880013FF598AE7D
:100B7000FFF794FC001B02284FF00300F4D990E625
:100B8000411E0020B0EB116F1CBF012070474EF2D8
:100B90001002CEF2000251604EF62351CEF2000157
:100BA000F0230B700721906011607047B0B590F88A
:100BB0003C20012A04BF0220B0BD01F108053CCD54
:100BC000D1E900CE23F47C5322F470521A432EF460
:100BD000F0431A432CF4E0431A4324F4C0431A436D
:100BE0002A43C96922F480420368114359640021F1
:100BF00080F83C100846B0BD10B590F83C20012AA2
:100C00004FF0020233D080F83D200268D2F804E0B1
:100C1000D2F808C00C682EF07003234340F2FF7432
:100C2000C4F20004A24253600ADCB2F1804F13D038
:100C300040F20043C4F200039A420DD011E000BF1D
:100C400042F60043C4F201039A4205D040F6000385
:100C5000C4F200039A4204D149682CF0800319437E
:100C600091600121002280F83D1080F83C20104660
:100C700010BD000080B586B0014640F60000C4F209
:100C80000100096800F5105300229942049201D036
:100C900006B080BD41F21801C4F202010A6842F0B8
:100CA00004020A60096801F00401019101994FF4FE
:100CB0007061029102210391059102A9FFF7DAFA0E
:100CC00006B080BD2DE9F04390F83C30012B04BF05
:100CD0000220BDE8F0834FEAB202032A3CD8DFE8E5
:100CE00002F0034381BD00BF036842F600461D6A5F
:100CF0001A6AC4F2010622F001021A621A465C68FE
:100D000052F818CFB3428E68D1F800E025F0020502
:100D100045EA06050CD1CE68D1E9057824F4407483
:100D200025F00C0526F004063C43354344EA08044C
:100D30002CF0730747EA0E075C609F614F680969F2
:100D40005F631D629F6947F008079F619F6927F0F5
:100D500004079F61B2E000BF0121002280F83C201F
:100D60000846BDE8F08300BF036842F600461D6AEE
:100D70001A6AC4F2010622F010021A621A46D3F867
:100D800004C052F8184FB3428E68D1F800E025F045
:100D9000200545EA061510D1CE68D1E9058725F072
:100DA000C0096FF0400505EA06152CF4406647EAD5
:100DB000080745EA090546EA870C24F4E64444EAB4
:100DC0000E27C3F804C09F614F6809699F631D62C5
:100DD0009F6947F400679F619F6927F480679F615F
:100DE0006BE000BF036842F600461D6A1A6AC4F24F
:100DF000010622F480721A621A46D3F804C052F82F
:100E00001CEFB3428E680C6825F4007545EA062590
:100E100011D1CE68D1E9058725F44069360240F248
:100E2000FF4526EA05052CF4405647EA080745EA3F
:100E3000090546EA071C2EF073072743C3F804C0D0
:100E4000DF614F680969DF631D62DF6947F00807EA
:100E5000DF61DF6927F00407DF612FE0036842F6F6
:100E60000047D3F820C01A6AC4F2010722F4805266
:100E70001A621A465C6852F81C5FD1F800E08E686E
:100E8000BB4204D14F6924F4804444EA87142CF413
:100E9000005747EA063725F4E64646EA0E265C6028
:100EA000DE614E6809691E641F62DF6947F40067EE
:100EB000DF61DF6927F48067DF6109021368194386
:100EC00011600021002280F83C200846BDE8F08334
:100ED000002804BF0120704710B5044690F83D007B
:100EE00028B9002084F83C00204600F067F8022072
:100EF00084F83D00206840F2FF730268C4F20003EA
:100F000042F6004C9842C4F2010C15DCB0F1804F5F
:100F10001AD040F20041C4F20001884214D0984235
:100F200018DCB0F1804F1DD040F20041C4F2000146
:100F3000884217D01AE000BF604505D040F6000196
:100F4000C4F200018842EAD1A16822F070020A438B
:100F50009842E6DD604505D040F60001C4F200018C
:100F6000884203D1216922F440720A43A36922F026
:100F70008001D4F804E0E268194360450160C26270
:100F8000C0F828E002D16169CCF83010012141613C
:100F9000002084F8461084F83E1084F83F1084F84E
:100FA000401084F8411084F8421084F8431084F80B
:100FB000441084F8451084F83D1010BD81B00068DD
:100FC00042F60041C4F20101884201D001B07047ED
:100FD00041F21800C4F20200016841F400610160AE
:100FE000006800F400600090009801B070470000B5
:100FF00041B1082910D0042914BF00F1410200F1C9
:101000003F020BE090F83E20012A1CBF01207047F0
:10101000022280F83E2013E000F140021278012AFB
:101020001CBF012070470222082907D0042914BFE1
:1010300080F8412080F83F2002E000BF80F8402087
:10104000006801F01F010122036A8A4023EA0201BD
:101050000162036A42F64441C4F201011A43A1F15C
:101060004403984202620FD040F2FF71C4F20001C3
:10107000884213DCB0F1804F1CD040F20041C4F232
:101080000001884216D01CE00A6842F400420A605F
:1010900040F2FF71C4F200018842EBDD42F60041EC
:1010A000C4F20101884205D040F60001C4F20001FB
:1010B000884206D1816801F00701062904BF00209B
:1010C0007047016841F00101016000207047000095
:1010D000FEE70000FEE70000FFF76AFBFEE7000006
:1010E0007047000070470000FFF7DEB9704700004E
:1010F000FEE7000094B0FFF7E5F900240120CDE9F8
:101100000644CDE9044401904FF480310590022556
:1011100001A8CDE90214CDE908510A94FFF756FB66
:1011200020B1EFF3108072B6FEE700BF0F20CDE9CB
:101130000B058020CDE90D044FF4E0600F900BA863
:101140000021FFF74FFA28B1EFF3108072B600BF0D
:10115000FEE700BF41F20004C4F20104FFF722FBE6
:1011600041F21800C4F202000168002241F01001AF
:10117000016001684FF4005501F0100101910199DF
:101180000168002641F020010160016801F02001A2
:1011900001910199016841F00401016000684FF478
:1011A000005100F00400019001982046FFF770F90B
:1011B0000120CDE902060220049001A920460195F4
:1011C000FFF758F840F20C05C2F200052A6840F219
:1011D000700004F5E051C2F20000013ACDE9126658
:1011E0000796C0E90016C0E90262C0E9046686619C
:1011F000FFF76EFE20B1EFF3108072B6FEE700BF7E
:1012000040F27000C2F2000012A9FFF7F5FC28B10D
:10121000EFF3108072B600BFFEE700BF60200B90B6
:101220000020CDE90C00CDE90E00CDE9100040F220
:101230007000C2F200000BA90022FFF743FD28B1A5
:10124000EFF3108072B600BFFEE700BF40F27000FF
:10125000C2F200000BA90422FFF734FD20B1EFF326
:10126000108072B6FEE700BF40F27000C2F20000CC
:101270000BA90822FFF726FD20B1EFF3108072B60C
:10128000FEE700BF40F27000C2F200000BA90C2282
:10129000FFF718FD20B1EFF3108072B6FEE700BF34
:1012A00040F2700A00204FF40051C2F2000A05908B
:1012B000CDE90300CDE901000691089001A950464F
:1012C000FFF774FC20B1EFF3108072B6FEE700BFA9
:1012D0005046FFF7CFFC286800F091F80023C3F6D2
:1012E000E073002206460F4600F0A0F800F058F820
:1012F00041F27B4247F6E1238046C4F2AE72C3F668
:1013000084733046394600F091F800F049F846F20F
:1013100066638146C3F6E673304639464FF066325F
:1013200000F084F800F03CF84CF6CD424CF6CC438B
:101330000546CCF6CC42C3F6EC733046394600F095
:1013400075F800F02DF8DAF80010C1F83480C1F813
:101350003890CD63086450460021FFF749FE50469F
:101360000421FFF745FE50460821FFF741FE504695
:101370000C21FFF73DFE00BF20464FF40051012233
:10138000FFF786F81020FEF761FF20464FF400516A
:101390000022FFF77DF81020FEF758FFECE7000071
:1013A0004FEA41034FEA5353A3F58063D3F11E0381
:1013B000C8BFD3F1210C0CDD4FF0004242EAC1223C
:1013C00042EA505232FA03FC8CEAE17CACEBE17069
:1013D0007047102BC4BF0020704703F5787CBCF128
:1013E000FF3F04D06FF0004282EA2100704770B5E1
:1013F00000F0C6F84992248000207047F2E710F010
:10140000004248BF4042B0FA80F310FA03F10AD01C
:10141000C3F11D0303F5806302EB03524FEA415011
:1014200002EBD12170474FF00000704770B5DFF834
:1014300048C11CEA111E1EBF1CEA13159EEA0C0FC0
:1014400095EA0C0F00F06F8081EA03044EEAD47E27
:10145000AE4421EA4C1123EA4C1341F4801143F4C9
:101460008013AEF17F7EA1FB024CA0FB0365361911
:1014700055EB0C05A1FB034C4CF10003A0FB021C37
:1014800016EB0C06654153F10003094218BF46F004
:10149000010613F4007F0BD14FEA03314FEA053008
:1014A00041EA155140EA165034036FF003020AE096
:1014B0004FEAC3214FEAC52041EA555140EA565050
:1014C000F4026FF0020202EB2E4201EB025585EAB4
:1014D000CE710AD05FEA440C18BF24F0004450F1EA
:1014E000000041F1000120EAD47040F2FE7C624528
:1014F00000D270BDA84214BF4FF080444FF040446A
:10150000002E08BF0024BEF1806FA8BFA1F1C0412A
:10151000BDE8704080F2828001F1C04101F00041DD
:101520004FF0000070470CEA13159EEA0C0F18BF2D
:1015300095EA0C0F06D081EA030E4FF000000EF082
:10154000004170BD00F01CF88900013E00F007B8B2
:1015500000F009B84FEA430C5FEA5C5C08D081EA0E
:10156000030100F05BB84FEA410C5FEA5C5CF6D126
:1015700002494FF0000070470000FF070000F87FAD
:101580000EF1020E2EF0030E5EF8046B364205D407
:10159000012A43EB030515F5001F12D8012841EB82
:1015A000010C1CF5001F0CD80ED14FEAD17C0CEBBE
:1015B0004C0C0CF1020C15F5001F08BF4CEBD37C52
:1015C00004E04FF0080C01E04FEAD37C0CEB4C0533
:1015D00026FA05F606F00706B6F1040C06D20EEB65
:1015E000860CBDE870404CF0010C6047DFE80CF061
:1015F000090B02024FF00041A1F500214FF000005D
:1016000070BD19461046012851EB010418BFD4F5EE
:10161000001484BF002001F0004170BD0808A0F54F
:1016200000114FEA31017047000000000000000087
:101630000102030406070809010202030405060764
:1016400008090A0B0C0D0E0F101000007016000890
:10165000000000201000000028010008801600088B
:1016600010000020B0060000440100080000000047
:1016700001000000100000000024F400307500009C
:04000005080000ED02
:00000001FF
