:020000040800F2
:100000003807002099010008B9210008B121000833
:10001000B521000891040008D9250008000000005F
:10002000000000000000000000000000C1210008E6
:10003000A104000800000000BD210008C52100083F
:10004000B3010008B3010008B3010008B3010008C0
:10005000B3010008B3010008B3010008B3010008B0
:10006000B3010008B3010008B3010008B3010008A0
:10007000B3010008B3010008B301000895040008AB
:10008000B3010008B3010008B3010008B301000880
:10009000B3010008B3010008B3010008B301000870
:1000A000B3010008B3010008B3010008B301000860
:1000B000B3010008B3010008B3010008B301000850
:1000C000B3010008B3010008B3010008B301000840
:1000D000B3010008CD250008B3010008B3010008F2
:1000E000B3010008B3010008B301000800F002F8F2
:1000F00000F043F80AA090E8000C82448344AAF17F
:100100000107DA4501D100F038F8AFF2090EBAE87C
:100110000F0013F0010F18BFFB1A43F0010318473B
:1001200088260000A8260000103A24BF78C878C1AD
:10013000FAD8520724BF30C830C144BF04680C60ED
:10014000704700000023002400250026103A28BF35
:1001500078C1FBD8520728BF30C148BF0B60704739
:100160001FB500F031F904000020002102F0F0FA80
:10017000401C60601FBD10B510BD00F000F91146B5
:10018000FFF7EEFF02F02AFA00F030F903B4FFF7B0
:10019000F2FF03BC00F074F90948804709480047A2
:1001A000FEE7FEE7FEE7FEE7FEE7FEE7FEE7FEE727
:1001B000FEE7FEE704480549054A064B7047000084
:1001C000C9210008ED000008380100203807002090
:1001D000380300203803002070B5064600F038F8D8
:1001E0000468054630460A22002100F035F82C60EC
:1001F00070BD40EA010310B59B070FD1042A0DD34F
:1002000010C808C9121F9C42F8D020BA19BA8842F7
:1002100001D9012010BD4FF0FF3010BD1AB1D30736
:1002200003D0521C07E0002010BD10F8013B11F86C
:10023000014B1B1B07D110F8013B11F8014B1B1B95
:1002400001D1921EF1D1184610BD7047704770471A
:1002500000487047180000202DE9F04791460F46EE
:1002600080460446002614F8015B2DB100F030F8FA
:100270000068405DC007F6D12B2D02D02D2D18D07F
:10028000641E4A463946204600F02AF827B13968EC
:10029000A14201D1C7F800804FF0020471050BD5CF
:1002A0004042002803DDFFF7D3FF0460A007BDE84C
:1002B000F08746F48066E4E70028F8DAFFF7C8FF25
:1002C00004606FF00040F2E700487047180000201B
:1002D00010B500F079F8001D10BD00BF75240000B6
:1002E0002DE9F05F824615468B4600270AF101048E
:1002F000B9460078302801D09DB113E014F8010B05
:100300000127782803D0582801D045B10AE00DB163
:10031000102D07D1002714F8010B102502E0082545
:1003200000E00A250026B0460EE005FB080005FBAC
:1003300006F101271FFA80F801EB1046B6F5803F61
:1003400000D3B94614F8010B294600F041F8002803
:10035000EBDABBF1000F05D00FB1641E00E054468C
:10036000CBF80040B9F1000F06D0FFF771FF022172
:100370000160C81EBDE8F09F48EA0640FAE77546EE
:10038000FFF7A2FFAE4605006946534620F007007E
:10039000854618B020B5FFF70DFFBDE820404FF0AF
:1003A00000064FF000074FF000084FF0000BAC467E
:1003B000ACE8C009ACE8C009ACE8C009ACE8C009C9
:1003C00021F007018D467047004870473800002033
:1003D0003A2800D2303820F02002412A01D3A2F17D
:1003E0003700884201D34FF0FF30704710B5044604
:1003F000AFF300802046BDE81040FFF7C7BE000005
:100400004FF0013C50F8042B51F8043B9A4221D1A3
:10041000A2EB0C03934313EACC1317D150F8042B2F
:1004200051F8043B9A4215D1A2EB0C03934313EA13
:10043000CC130BD150F8042B51F8043B9A4209D14C
:10044000A2EB0C03934313EACC13DBD04FF0000074
:10045000704700BFD01A01BAB1FA81F101F018015A
:1004600022FA01F0CB40DBB2C0B2C01AC1F12001C8
:100470002CFA01F3D11A914311EAC311E6D1704766
:1004800001491820ABBEFEE72600020070470000BD
:10049000FEE7000040F2CC00C2F2000000F0A2B97A
:1004A000704700002DE9F04786B047F600499046B6
:1004B0000D468246C0F6000900F0E2FB01200490E0
:1004C0000020019001A805A9CDF80C9000F000FBD8
:1004D000074600F075FB002F04BF059810F10100DE
:1004E00002D006B0BDE8F08700F0CAFB08EB0507B4
:1004F0000026002406E000BF0134B4F5807F06F139
:1005000004060FD0AC4228BFA742F5D85AF80620FF
:1005100006EB09010220002300F05CFB0028EBD071
:1005200027E000BF00F0ACFB012004900020019008
:1005300001A805A9CDF80CA000F0CAFA054600F004
:100540003FFB002D04BF059810F10100C9D100F058
:1005500097FB002444EA090002680AEB0401022028
:10056000002300F037FB20B9B4F57F7F04F10404C9
:10057000F0D100F025FB06B0BDE8F0870246002070
:10058000B0EB522F06D147F20043C0F6000353F8F8
:1005900022300B60B2F5007F38BF012070470000A9
:1005A00070B50026B6EB502F25D147F20046C0F6B5
:1005B0000006054656F820000C46013007D025F00D
:1005C000FF0006EB8000E9B20122FFF76BFF601C21
:1005D0000ED006EB850500F053FB0220294622468B
:1005E000002300F0F7FAB0FA80F0460901E000BFFE
:1005F000012600F0E5FA304670BD0000EFF31080F0
:1006000072B600BFFEE7000070B542F20C06044669
:10061000C4F2020600F060FC3168C90718D13068E6
:10062000800644BF202030603068C00607D430699F
:10063000C00704D1306840075CBF002070BD30683F
:10064000C00623D40020316849072BD434E000BF12
:10065000002C47D00546601C0ED13068C007DED0A4
:100660003068C0071CBF30685FEAC070D7D0306800
:10067000C007F2D1D3E700BF00F02EFC401BA04220
:1006800030D83068C007F7D1C9E700BF40F210107A
:10069000C2F20000C16941F00201C161102031685D
:1006A000490709D540F21011C2F20001CA6940F0B1
:1006B000040042F00102CA613169C90702D1306009
:1006C000012070BD40F21011C2F20001CA6942F06F
:1006D0000402CA61316921F00101316130600120F9
:1006E00070BD00BF032070BD014690F821000228B4
:1006F00016D10868D1E90FC3026822F00E02026029
:10070000026822F001020260012000FA03F2CCF834
:10071000042081F821000020002281F82020704769
:10072000042088630120002281F820207047000007
:1007300080B590F82110022924D10268116821F0B7
:100740000E0111602F211368C4F202018A4240F2A7
:100750000401C4F2020123F00103136016DD30230B
:10076000C4F202039A421DD04423C4F202039A4207
:100770001CD05823C4F202039A421DD14FF4803397
:1007800022E000BF04218163012080BD0823C4F260
:1007900002039A420ED01C23C4F202039A420BD1E8
:1007A000102311E04FF480730EE000BF4FF480532C
:1007B0000AE000BF012307E001F1680C4FF08073ED
:1007C000624508BF4FF480130B60012180F82110AF
:1007D000426B002180F820100AB1904700210846A2
:1007E00080BD000010B5D0E90FCE0168DCF8003004
:1007F0000A6823FA0EF35C072AD512F0040427D006
:100800000A68920603D40A6822F004020A602F22C2
:10081000C4F20202914240F20402C4F202025BDD21
:100820003023C4F20203994272D04423C4F202037B
:10083000994273D05823C4F20203994240F07A805F
:100840004FF480231360C16A002940F098806FE064
:100850009C0727D512F0020424D00A68920606D419
:100860000A6822F00A020A60012280F821202F2261
:10087000C4F20202914240F20402C4F202023BDDE1
:100880003023C4F20203994260D04423C4F202032D
:1008900099425FD05823C4F20203994260D14FF4C9
:1008A000003365E01B0743D512F0080208BF10BDF6
:1008B0000A6822F00E020A60012101FA0EF2CCF859
:1008C0000420816380F82110016B0022002980F848
:1008D000202054D12CE000BF0823C4F20203994227
:1008E00022D01C23C4F20203994223D14023136077
:1008F000C16A002943D11BE00823C4F202039942D4
:100900002CD01C23C4F20203994229D120232FE0CA
:100910004FF480631360C16A89BB09E04FF48043E0
:100920001360C16A59BB03E004231360C16A31BB81
:1009300010BD00BF02F168044FF08063A14208BF00
:100940004FF480031360C16AC9B9F1E74FF4007333
:100950000EE000BF4FF400530AE000BF022307E09F
:1009600002F168044FF00073A14208BF4FF4001376
:100970001360816A0022002980F82020D8D0BDE8C9
:1009800010400847014600284FF0010008BF70479B
:100990002DE9F043D1F800C04FF6F873CBF6FD73A4
:1009A0004CF6CD426344CCF6CC42A3FB02236FF05D
:1009B000030707EA93030027C4F2020701F10C09B9
:1009C000C1E90F730223D1E9012E99E87002D1F831
:1009D0001C8081F82130DCF8003043F6F077BB430F
:1009E0001A4342EA0E0222432A43324342EA0902F0
:1009F00042EA0802CCF8002000228A6381F8210034
:100A000081F820200020BDE8F0437047F0B590F851
:100A100020C0BCF1010F32D04FF0010E80F820E071
:100A200090F821C0BCF1010F26D14FF0020C80F8E4
:100A300021C04FF0000CC0F838C0D0E900C4C56A2E
:100A4000C66BDCF80070102C27F00107CCF80070A2
:100A5000006C0EFA00F070600846CCF8043004BF59
:100A600010460A46CCF80800CCF80C20DCF8000050
:100A700045B140F00E000DE0002180F8201002206A
:100A8000F0BD00BF20F00400CCF80000DCF800004E
:100A900040F00A00CCF80000DCF8000040F0010053
:100AA000CCF800000020F0BDB0B5044600F014FA08
:100AB000054640F20800C2F200000078611C18BF31
:100AC000044400BF00F008FA401BA042FAD3B0BDB6
:100AD0002DE9F04381B040F21016C2F20006327EDA
:100AE000012A03D1022001B0BDE8F08305460120B0
:100AF0002C6830764CF250308846FFF785FD022C8A
:100B00001CD100284ED1002042F21004F061C4F242
:100B10000204206840F004002060206840F040009B
:100B200020604CF25030FFF76FFD216821F0040186
:100B300021600021317601B0BDE8F08390BB4FF019
:100B4000FF30C8F80000D5E9027007EB802087422B
:100B500028D242F21004C4F202044FF0000900BF90
:100B6000C6F81C90206840F0020020606760206892
:100B700040F0400020604CF25030FFF745FD216806
:100B800021F00201216098B9D5E9020107F58067DB
:100B900000EB81208742E3D300200021317601B0B1
:100BA000BDE8F08301200021317601B0BDE8F0837B
:100BB000C8F800700021317601B0BDE8F083000074
:100BC00042F21001C4F20201086840F080020020E5
:100BD0000A6070472DE9F04F81B040F21019C2F25F
:100BE0000009924699F81820012A03D1022001B089
:100BF000BDE8F08F8046012089F818004CF2503093
:100C00009B460E46FFF700FDA0BB404642F2100790
:100C1000B8F1020F18BF0420C4F20207B8F1010FA7
:100C200008BF404645424FF000080024C4F12001AF
:100C3000C9F81C802AFA04F00BFA01F13A6808435B
:100C4000B4F1200158BF2BFA01F042F001013960E4
:100C500026F8020B4CF25030FFF7D6FC396801350C
:100C600021F0010248F100013A6018B9002904F1AD
:100C70001004DBD0002189F8181001B0BDE8F08F16
:100C800042F20400C4F20200C16809065CBF002001
:100C9000704740F22311C4F26751016048F6AB116E
:100CA000CCF6EF510160C068C0B2C00970470000C7
:100CB0002DE9F04F82B00E68002E00F0038141F262
:100CC0000042C4F20102042340F2004E904208BFE9
:100CD00003234FF6FF7CC4F2010E0093002401238E
:100CE000C1F2100C4FF0000A4FF0000949E000BFBC
:100CF000012704F00C030F229A402BEA020207FAA4
:100D000003F34FEA9A051A4346F82520D1F804B0B8
:100D100040F20C455FEACB22DEF8082054BF22EAFD
:100D2000080242EA0802C4F20105CEF808202A6847
:100D30005FEA8B2354BF22EA080242EA08022A60D3
:100D40005FEA8B33DEF8042054BF22EA080242EA4D
:100D500008025FEACB33CEF80420DEF800204FF023
:100D6000010354BF22EA080242EA0802CEF800203A
:100D70000E680AF1010A36FA0AF204F1040400F0DE
:100D8000A18003FA0AF816EA080FF1D04E6866450A
:100D900012DC122E56D8DFE806F0350B45495555C2
:100DA00055555555555555555555554D510000BF3F
:100DB000D1F80C9046E000BF4FF6FF72C1F221025D
:100DC00096420FDC0022C1F2110296421AD0002294
:100DD000C1F21202964215D00022C1F221029642BF
:100DE00010D02FE00022C1F2220296420AD0002247
:100DF000C1F23102964205D00022C1F2320296427F
:100E000020D100BF8A684AB1012A14BFC0F81480FB
:100E1000C0F810804FF0080914E000BF4FF004093B
:100E200010E000BFCA6802F108090BE04FF00009AA
:100E300008E000BFCA6802F1040903E0CA6802F1D1
:100E40000C0900BF22460646BAF1080F24BF203A1B
:100E5000043637680F25954027EA050509FA02F29E
:100E60002A433260CA79D2067FF582AF41F2180375
:100E7000C4F202031A68AEF57E7642F001021A60EF
:100E80001A6802F001020192019A2AF0030256F850
:100E900002B040F60002C4F20102904210D040F6C7
:100EA0000042C4F2010290423FF422AF41F200023C
:100EB000C4F20102009F904208BF022719E700BF59
:100EC000002716E702B0BDE8F08F0000002A08BF37
:100ED000090401617047000040F23010C2F20000C6
:100EE0000068704740F2080040F23011C2F2000082
:100EF000C2F2000100780A681044086070470000E0
:100F000080B542F20000C4F20200016841F0100115
:100F10000160032000F08EF80F2000F005F800F0CB
:100F200027F8002080BD000070B540F20806C2F22C
:100F3000000640F210013278C2F200014FF47A73D9
:100F40000968B3FBF2F20446B1FBF2F1084600F087
:100F500063FB0F2C4FF0010508D838B94FF0FF3074
:100F600021460022002500F039F87460284670BD43
:100F700082B041F21800C4F202000168022241F07E
:100F800001010160016801F00101019101994168CD
:100F900041F080514160406800F08050009000981E
:100FA0000420C4F20100016862F31A61016002B01A
:100FB00070470000002848BF7047C1B200F01F0012
:100FC000012202FA00F04EF20012CEF2000242EAD2
:100FD000D10121F0030108607047000010B54EF602
:100FE0000C5CCEF2000CDCF80030C3F3022E8EF065
:100FF0000704042C28BF0424BEF103034FF0FF3E76
:101000000EFA04F438BF0023A14399400EFA03F30B
:101010009A43114300F00F0200F160430901043AC2
:1010200003F564436244002848BF02F10C031970C1
:1010300010BD00004EF60C51CEF200010A684FF6CA
:10104000FF031A4060F30A2242F0806040F0FD7016
:10105000086070472DE9F04381B0002800F08580DA
:1010600042F20008C4F202080446D8F800000D4617
:1010700000F0070088420CD2D8F8000020F00700EA
:101080002843C8F80000D8F8000000F00700A84284
:101090006BD1206841F204098107C4F2020917D517
:1010A000410705D5D9F8001041F4E061C9F80010F6
:1010B000010705D5D9F8001041F46051C9F80010B6
:1010C000D9F80010A26821F0F0011143C9F800100E
:1010D000C00741D1D8F8000000F00700A8420CD9A1
:1010E000D8F8000020F007002843C8F80000D8F81E
:1010F000000000F00700A84237D12068410707D55B
:10110000D9F80010E26821F4E0611143C9F8001039
:10111000000708D5D9F80000216920F4605040EAA2
:10112000C100C9F80000D9F8002002F00C0008281E
:1011300041F20020C0F27A0050D142F29673C2F31D
:101140008341C0F60003595CD2033BD440F6001043
:10115000C0F23D00484341E0606802280AD00128FF
:101160002AD159F8041C890308D4012001B0BDE834
:10117000F08300BF59F8041C8901F6D5D9F8001096
:1011800021F003010843C9F80000FFF7A5FE064659
:1011900041F28837D9F80000616800F00C00B0EB2C
:1011A000810F97D0FFF798FE801BB842F2D9032039
:1011B00001B0BDE8F08300BF59F8041C8907D4D5FD
:1011C000DCE700BFD9F8002042F29473C2F340423A
:1011D000C0F600039A5C4843B0FBF2F0D9F8001067
:1011E00042F27C72C1F30311C0F60002515C40F27E
:1011F000100220FA01F140F20C00C2F20000006877
:10120000C2F200021160FFF78FFE002001B0BDE8BE
:10121000F083000040F2100041F20401C2F200002D
:10122000C4F202010068096842F28C72C1F3022123
:10123000C0F60002515CC8407047000040F2100048
:1012400041F20401C2F20000C4F202010068096820
:1012500042F28C72C1F3C221C0F60002515CC84058
:10126000704700002DE9F04182B0002868D00446A4
:10127000007841F20006C007C4F2020625D070686B
:1012800000F00C0004281BD0706800F00C00082847
:1012900002D17068C00313D46068002800F0688130
:1012A000B0F5A02F00F07C81B0F5803F00F07C818C
:1012B000306820F480303060306820F4802076E19F
:1012C0003068800301D56068D0B32078800718D5D6
:1012D000706810F00C0F07D0706800F00C00082840
:1012E0006ED17068C0036BD43068800702D5206966
:1012F000012825D13068616920F0F80040EAC1007A
:101300003060207800071FD42078400732D4E56988
:1013100095B1706800F00C00082840F08F80012D16
:101320000ED07068216A00F480328A4208D1616A66
:1013300000F47010884203D1002002B0BDE8F081B3
:10134000012002B0BDE8F081A069002862D0002031
:10135000C4F242200121C0F88014FFF7BDFD05460C
:10136000706A800700F18C80FFF7B6FD401B0228F1
:10137000F6D92AE1F06910F0805808D1F06940F000
:101380008050F061F06900F080500090009847F2C2
:101390000007C4F200073868C00529D4386840F453
:1013A00080703860FFF798FD054600BF3868C005BB
:1013B0001ED4FFF791FD401B6428F7D905E100BF5B
:1013C0002069002840F20000C4F2422000F0828030
:1013D00001210160FFF780FD054600BF30688007EE
:1013E0003FF588AFFFF778FD401B0228F6D9ECE007
:1013F000E068002800F08080052800F09780012830
:1014000000F09880306A20F001003062306A20F0ED
:10141000040092E00020C4F242200021C0F88014B1
:10142000FFF75AFD054600BF706A80077FF56CAF75
:10143000FFF752FD401B0228F6D9C6E00027C4F290
:10144000422700203866FFF747FD022D05460BD1E5
:101450003068800140F1BE80FFF73EFD401B02284E
:101460004FF00300F4D968E7306880017FF564AF7E
:10147000FFF732FD401B02284FF00300F4D95CE770
:1014800040F21000C2F20000006844F6D351C1F2ED
:101490006201A0FB0101480A019000BF00BF019852
:1014A000411E002801913FF42FAF00BF0198411E5B
:1014B000002801913FF428AF00BF0198411E002889
:1014C00001913FF421AF00BF0198411E0028019116
:1014D000E4D119E700210160FFF7FEFC054600BFDB
:1014E000306880077FF50DAFFFF7F6FC401B022840
:1014F0004FF00300F4D920E7306A20F00100306299
:10150000306A20F004003062FFF7E6FC054641F245
:10151000883700BF306A800720D5FFF7DDFC401B0D
:10152000B8424FF00300F5D907E700BF306A40F03A
:1015300004003062306A40F001003062FFF7CCFCFA
:10154000054641F2883700BF306A800706D4FFF7AE
:10155000C3FC401BB842F7D937E000BFB8F1000F19
:101560007FF4D5AEF06920F08050F061CFE600BF87
:10157000306820F480303060306820F480203060A3
:10158000FFF7AAFC054600BF306880037FF59DAEDB
:10159000FFF7A2FC401B64284FF00300F4D9CCE60F
:1015A000306840F480203060306840F48030306033
:1015B000FFF792FC054600BF306880033FF585AE1B
:1015C000FFF78AFC401B6428F6D9032002B0BDE86F
:1015D000F08100BF206AB0F5803F05D17168A26834
:1015E00021F40031114371607168626A21F4741151
:1015F00011430843706001203866FFF76DFC044614
:10160000306880013FF598AEFFF766FC001B0228AA
:101610004FF00300F4D990E6411E0020B0EB116FAB
:101620001CBF012070474EF21002CEF20002516042
:101630004EF62351CEF20001F0230B70072190608B
:10164000116070477047000070470000B0B582B06D
:10165000044600680168C368426901F02F05202D27
:1016600003F0200506D12DB1204602B0BDE8B04000
:1016700000F02CBF5FEA017C1EBF02F0010E03F4F4
:10168000907212EB0E0253D1226B012A05D111F098
:10169000100218BF13F0100236D10A0622D513F03B
:1016A00080021FD094F8411021293FD1A168B1F5E3
:1016B000805F03D12169002900F07082216A4A1CF1
:1016C000226209784160E18C01390A04E1842DD15C
:1016D000C16821F08001C160C16841F04001C16072
:1016E00002B0B0BD490621D513F040011ED0C1683B
:1016F00021F04001C1602021204684F8411002B051
:10170000BDE8B04000F052BD002101910168019197
:101710004168019101994069400613D4A08DE18D83
:10172000E28D002A18BF884240F0BA8102B0B0BDF5
:10173000CA0718BF13F4807240F0B6804A0700F160
:10174000B980BEE0E06B016849688AB2002AEDD03A
:10175000A38D9A42EAD2E1858069202800F09C801E
:10176000206850E8030F216820F4807041E80302EC
:10177000DAB1206850E8030F216820F4807041E856
:10178000030292B1206850E8030F216820F48070B2
:1017900041E803024AB1206850E8030F216820F4B1
:1017A000807041E80302002ADAD1206850E8050F72
:1017B000216820F0010041E80502DAB1206850E814
:1017C000050F216820F0010041E8050292B1206870
:1017D00050E8050F216820F0010041E805024AB1F8
:1017E000206850E8050F216820F0010041E805025B
:1017F000002ADAD1206850E8050F216820F0400067
:1018000041E80502DAB1206850E8050F216820F0B0
:10181000400041E8050292B1206850E8050F2168B8
:1018200020F0400041E805024AB1206850E8050F69
:10183000216820F0400041E80502002ADAD120208A
:1018400084F8420000202063206850E8030F2168DC
:1018500020F0100041E80302DAB1206850E8030FDD
:10186000216820F0100041E8030292B1206850E89E
:10187000030F216820F0100041E803024AB12068FC
:1018800050E8030F216820F0100041E80302002A0D
:10189000DAD1E06BFEF728FF02206063A08DE18DB6
:1018A000401A81B2204674E1626C42F00102626427
:1018B0004A0706D5BEF1000F03D0626C42F0020267
:1018C00062648A0706D5BEF1000F03D0626C42F055
:1018D00004026264BCF1000F09D545EA0E02B2FAB7
:1018E00082F2520903D1626C42F008026264626CB7
:1018F000002A3FF41BAF11F0200118BF002D03D0C8
:10190000204600F0E3FD20684069616C00F0400073
:1019100001F00801401800F0B58000BF206850E8D1
:10192000030F216820F4907041E80302BAB32068E5
:1019300050E8030F216820F4907041E8030272B36D
:10194000206850E8030F216820F4907041E80302FA
:101950002AB3206850E8030F216820F4907041E812
:101960000302002ADAD11AE0206850E8050F216846
:1019700020F0010041E80502DAB1206850E8050FC7
:10198000216820F0010041E8050292B1206850E88A
:10199000050F216820F0010041E805024AB12068E6
:1019A00050E8050F216820F0010041E80502002AF7
:1019B000DAD1206B012824D1206850E8030F216878
:1019C00020F0100041E80302DAB1206850E8030F6C
:1019D000216820F0100041E8030292B1206850E82D
:1019E000030F216820F0100041E803024AB120688B
:1019F00050E8030F216820F0100041E80302002A9C
:101A0000DAD1202084F84200002020632068406959
:101A100040063FD5206850E8050F216820F04000BF
:101A200041E80502DAB1206850E8050F216820F08E
:101A3000400041E8050292B1206850E8050F216896
:101A400020F0400041E805024AB1206850E8050F47
:101A5000216820F0400041E80502002ADAD1E06B5D
:101A6000C0B142F2CD11C0F600014163FEF760FE45
:101A700000283FF45BAEE06B416B02B0BDE8B040C4
:101A8000084700BF2046FFF7DFFD0020606402B07A
:101A9000B0BD00BF204602B0BDE8B040FFF7D4BDE6
:101AA000401A216851E8031F226821F4907142E82E
:101AB0000313DBB1216851E8031F226821F4907100
:101AC00042E8031393B1216851E8031F226821F40F
:101AD000907142E803134BB1216851E8031F22685B
:101AE00021F4907142E80313002BDAD1216851E808
:101AF000051F226821F0010142E80513DBB12168CE
:101B000051E8051F226821F0010142E8051393B155
:101B1000216851E8051F226821F0010142E8051300
:101B20004BB1216851E8051F226821F0010142E80C
:101B30000513002BDAD1202184F842100021216303
:101B4000216851E8031F226821F0100142E80313C5
:101B5000DBB1216851E8031F226821F0100142E83F
:101B6000031393B1216851E8031F226821F010018B
:101B700042E803134BB1216851E8031F226821F0AA
:101B8000100142E80313002BDAD1022281B2204671
:101B9000626302B0BDE8B040FFF754BD216A31F87E
:101BA000022B6FF35F22426021628CE5002804BFA4
:101BB0000120704710B5044690F8410028B9002074
:101BC00084F84000204600F063F8242084F84100A7
:101BD0002068D4E90212C36823F40053C360036988
:101BE00023F440531A430261D4E904231143C26829
:101BF000194341F20C639A431143C1604169A269E0
:101C000021F44071114343F60002C4F201029042F4
:101C1000416103D0FFF7FEFA02E000BFFFF70EFBC1
:101C20006268192148439100B0FBF1F048F21F515E
:101C3000C5F2EB11A0FB01235A094FF69C73C0F6C5
:101C4000FF7302FB0300322303EB0010A0FB010132
:101C5000F02303EA5113206803EB0212C1F343118E
:101C600011448160016921F490410161416921F0D1
:101C70002A014161C16841F40051C1600020202166
:101C8000606484F8411084F84210606310BD000065
:101C90002DE9F04186B040F600050446C4F2010586
:101CA000006805F5405100278842049702D006B02D
:101CB000BDE8F08141F21806C4F2020630680DF169
:101CC000080840F4804030603068414600F48040AD
:101CD00001900198306840F004003060306800F0F6
:101CE0000400019001984FF40070029002200390CC
:101CF000032005902846FEF7DBFF4FF48060CDE916
:101D00000207284641460497FEF7D2FF40F2CC0571
:101D1000A6F57C60C2F2000580212022C5E90007FB
:101D20002846C5E90271C5E90477C5E90627FEF72B
:101D300029FE002818BFFEF761FC252000210022A3
:101D4000E5636C62FFF74AF92520FFF733F906B027
:101D5000BDE8F08170B582B0044690F842002028BA
:101D60000AD113460A4600294FF0010018BF002B84
:101D700006D102B070BD00BF022002B070BD00BF2E
:101D8000002522202563A262A385656484F84200B1
:101D90002168E06B42F2553C42F2B54E42F2D91650
:101DA000C0F6000CC0F6000EC0F600060431C0E913
:101DB0000ACEC0E90C65FEF729FE0195206801688E
:101DC0000191406801900198206928B3206850E88B
:101DD000030F216840F4807041E80302E2B12068FB
:101DE00050E8030F216840F4807041E803029AB183
:101DF000206850E8030F216840F4807041E8030236
:101E000052B1206850E8030F216840F4807041E827
:101E10000302002ADAD100BF206850E8050F2168CC
:101E200040F0010041E80502E2B1206850E8050FEA
:101E3000216840F0010041E805029AB1206850E8AD
:101E4000050F216840F0010041E8050252B1206809
:101E500050E8050F216840F0010041E80502002A22
:101E6000DAD100BF206850E8050F216840F040003B
:101E700041E80502DAB1206850E8050F216840F01A
:101E8000400041E8050292B1206850E8050F216842
:101E900040F0400041E805024AB1206850E8050FD3
:101EA000216840F0400041E80502002ADAD1002014
:101EB00002B070BD70B540F27804C2F20004206830
:101EC0002546002140F2000645F8040F2172C2F2B7
:101ED00000063221C6E900102846FEF77DF9306081
:101EE00004F10C0021460422642300F023F80CA125
:101EF00028460522FEF77DF918B971680020FEF723
:101F00004FFB201D08A10522FEF773F9002818BF1A
:101F100070BD311D0020BDE87040FEF72FBB00BF33
:101F2000303030310000000030303032000000002E
:101F3000704700002DE9F04381B0044690F841005D
:101F4000202840F0B180884600294FF0010000F0C1
:101F5000D6801646002A00F0D2800020606421203E
:101F60001D4684F84100FEF7B7FFA684E684A16809
:101F70000646B1F5805F03D12069002800F0988003
:101F800047464FF00008E18C2068002900F0968059
:101F900005F101090BE000BF47B317F8011B4160D1
:101FA000E18C0139E184E18C002900F0878001682F
:101FB0000906F1D4B9F1000F0AD0EDB1FEF78CFF9C
:101FC000801BA84218D8206801680906F6D5E3E707
:101FD00001680906E0D4016809065CBF01685FEA90
:101FE0000161D9D401680906F2D5D5E738F8021B9A
:101FF00000276FF35F21D2E7206850E8030F2168C4
:1020000020F4D07041E80302BAB3206850E8030F0F
:10201000216820F4D07041E8030272B3206850E8D0
:10202000030F216820F4D07041E803022AB320682E
:1020300050E8030F216820F4D07041E80302002A21
:10204000DAD11AE0206850E8050F216820F001007D
:1020500041E80502DAB1206850E8050F216820F058
:10206000010041E8050292B1206850E8050F21689F
:1020700020F0010041E805024AB1206850E8050F50
:10208000216820F0010041E80502002ADAD1202071
:1020900084F8410084F84200002084F840000320C6
:1020A00001B0BDE8F08300BF022001B0BDE8F083BD
:1020B0000027E18C206800297FF46AAF0168490697
:1020C00019D4FDB1691C0DD10168490613D401680A
:1020D00049065CBF01685FEA41610CD401684906AA
:1020E000F2D508E0FEF7F8FE801BA8420AD8206867
:1020F00000684006F6D5202084F84100002001B099
:10210000BDE8F083206850E8030F216820F4D07008
:1021100041E80302002A3ED0206850E8030F2168FE
:1021200020F4D07041E80302AAB3206850E8030FFE
:10213000216820F4D07041E8030262B3206850E8BF
:10214000030F216820F4D07041E80302002AD9D19E
:1021500021E000BF206850E8050F216820F0010051
:1021600041E80502002A3FF492AF206850E8050FCD
:10217000216820F0010041E80502002A3FF487AF02
:10218000206850E8050F216820F0010041E80502B1
:10219000002A3FF47CAF206850E8050F216820F04A
:1021A000010041E80502002AD4D170E77047000021
:1021B000FEE70000FEE70000FEE7000070470000B9
:1021C00070470000FEF78EBE70470000406A002195
:1021D000C185C184FFF738BA406A01684A6990F83E
:1021E0004130212B2DD112F080022AD00021C18450
:1021F000016851E8031F026821F0C00142E803139F
:10220000DBB1016851E8031F026821F0C00142E818
:10221000031393B1016851E8031F026821F0C00164
:1022200042E803134BB1016851E8031F026821F033
:10223000C00142E80313002BDAD1202180F84110BD
:102240000168496990F84220222A40F07D8011F00F
:10225000400179D00021C185016851E8031F02685F
:1022600021F4907142E80313BBB3016851E8031FE6
:10227000026821F4907142E8031373B3016851E8D6
:10228000031F026821F4907142E803132BB3016825
:1022900051E8031F026821F4907142E80313002BF8
:1022A000DAD11AE0016851E8051F026821F0010146
:1022B00042E80513DBB1016851E8051F026821F00F
:1022C000010142E8051393B1016851E8051F026856
:1022D00021F0010142E805134BB1016851E8051FE7
:1022E000026821F0010142E80513002BDAD1016BED
:1022F000012924D1016851E8031F026821F010016F
:1023000042E80313DBB1016851E8031F026821F0C2
:10231000100142E8031393B1016851E8031F0268FA
:1023200021F0100142E803134BB1016851E8031F8B
:10233000026821F0100142E80313002BDAD12021BA
:1023400080F8421000210163416C41F010014164AA
:10235000FFF77AB90168406A0968890600F19F8031
:102360000021C185016851E8031F026821F48071D2
:1023700042E80313E3B1016851E8031F026821F446
:10238000807142E803139BB1016851E8031F0268A2
:1023900021F4807142E8031353B1016851E8031F2F
:1023A000026821F4807142E80313002BDAD100BFE8
:1023B000016851E8051F026821F0010142E8051398
:1023C000BBB3016851E8051F026821F0010142E832
:1023D000051373B3016851E8051F026821F001017C
:1023E00042E805132BB3016851E8051F026821F08C
:1023F000010142E80513002BDAD11AE0016851E827
:10240000051F026821F0400142E80513DBB10168B5
:1024100051E8051F026821F0400142E8051393B11D
:10242000016851E8051F026821F0400142E80513E8
:102430004BB1016851E8051F026821F0400142E8F4
:102440000513002BDAD1202180F84210016B0129FD
:1024500025D100BF016851E8031F026821F0100177
:1024600042E80313DBB1016851E8031F026821F061
:10247000100142E8031393B1016851E8031F026899
:1024800021F0100142E803134BB1016851E8031F2A
:10249000026821F0100142E80313002BDAD1002179
:1024A0004163016B012918BFFFF704BD818DFFF760
:1024B000C9B80000406A01214163016B012918BFBE
:1024C000FFF736BD818D4908FFF7BCB881B090F8A1
:1024D0004210222921D183680246B3F5805F09D1D9
:1024E00052F8281F52F8183C002B63D003685B6831
:1024F0000AE000BF52F8281F13B90369002BF5D07A
:1025000003685B6803F07F030B7011680131116091
:10251000C18D01390A04C18502D001B0704700BFE6
:102520000168CA6822F02002CA60CA6822F4807278
:10253000CA604A6922F001024A61202180F84210F3
:1025400000214163026B012A3CD10163016851E81B
:10255000031F026821F0100142E80313DBB1016898
:1025600051E8031F026821F0100142E8031393B100
:10257000016851E8031F026821F0100142E80313CB
:102580004BB1016851E8031F026821F0100142E8D5
:102590000313002BDAD101680A68D20606D500229F
:1025A00000920A680092496800910099818D01B0FB
:1025B000FFF748B8026852686FF35F2221F8022BD8
:1025C0008162A5E701B0FFF775BC000040F284000E
:1025D000C2F20000FFF73AB8FEE7000090B0FEF745
:1025E0008FFC00240120CDE90B44CDE9094406907D
:1025F0000A904FF4E0104FF4803102250F9006A8A6
:10260000CDE90714CDE90D51FEF72CFE20B1EFF313
:10261000108072B6FEE700BF0F20CDE901054FF430
:102620008060CDE9040401A802210394FEF712FDA5
:1026300020B1EFF3108072B6FEE700BF41F218053B
:10264000C4F20205286841F2000440F0100028603E
:102650002868C4F2010400F010000690069828686B
:102660004FF4005140F0200028602868002200F05C
:1026700020000690069828684FF4005740F00400A8
:1026800028602868002600F004000690069820467E
:10269000FEF71CFC0120CDE907060220099006A9DF
:1026A00020460697FEF704FB55F8040C002140F085
:1026B000010045F8040C55F8040C002200F001005C
:1026C000069006980F20FEF789FC0F20FEF772FC9B
:1026D00040F27805C2F2000504F52051284640F882
:1026E0000C1F4FF4E1310C22C0E90116C0E903666A
:1026F000C0E90526C661FFF759FA28B1EFF310804B
:1027000072B600BFFEE700BF05F10C0029460422A7
:10271000FFF720FB40F20005C2F2000520464FF40F
:1027200000510122FEF7D2FB286800EBD070401068
:10273000FEF7BAF920464FF400510022FEF7C6FB1F
:10274000286800EBD0704010FEF7AEF9E6E7000015
:1027500010B500290AD00878002807D00548784429
:10276000FDF74EFE002801D0002010BD024878443D
:1027700010BD00006A0000006200000000000000C0
:102780000000000001020304060708090000000021
:1027900001020304010202030405060708090A0BEB
:1027A0000C0D0E0F10100000D828000800000020AB
:1027B0001800000028010008F02800081800002078
:1027C0002007000044010008100100004300000041
:1027D000F8FFFFFF00404040404040404040414142
:1027E00041414140404040404040404040404040E6
:1027F0004040404040050202020202020202020280
:10280000020202020220202020202020202020027C
:10281000020202020202909090909090101010100C
:1028200010101010101010101010101010101010A8
:10283000020202020202888888888888080808083C
:102840000808080808080808080808080808080808
:102850000202020240000000000000000000000030
:102860000000000000000000000000000000000068
:102870000000000000000000000000000000000058
:102880000000000000000000000000000000000048
:102890000000000000000000000000000000000038
:1028A0000000000000000000000000000000000028
:1028B0000000000000000000000000000000000018
:1028C0000000000000000000000000000000000008
:1028D0000000000000000000F4010000F40100000E
:1028E00001000000100000000024F40000000000BF
:04000005080000ED02
:00000001FF
