:020000040800F2
:100000002807002089010008E51C0008DD1C000805
:10001000E11C000845020008151E00080000000051
:10002000000000000000000000000000F11C0008BB
:100030004902000800000000ED1C0008F51C000843
:10004000A3010008A3010008A3010008A301000800
:10005000A3010008A3010008A3010008A3010008F0
:10006000A3010008A3010008A3010008A3010008E0
:10007000A3010008A3010008A3010008A3010008D0
:10008000A3010008A3010008A3010008A3010008C0
:10009000A3010008A3010008A3010008A3010008B0
:1000A000A3010008A3010008A3010008A3010008A0
:1000B000A3010008A3010008A3010008A301000890
:1000C000A3010008A3010008A3010008A301000880
:1000D000A3010008091E0008A3010008A3010008ED
:1000E000A3010008A3010008A301000800F002F822
:1000F00000F03AF80AA090E8000C82448344AAF188
:100100000107DA4501D100F02FF8AFF2090EBAE885
:100110000F0013F0010F18BFFB1A43F0010318473B
:10012000D4210000F4210000103A24BF78C878C11F
:10013000FAD8520724BF30C830C144BF04680C60ED
:10014000704700000023002400250026103A28BF35
:1001500078C1FBD8520728BF30C148BF0B60704739
:100160001FB51FBD10B510BD00F031F81146FFF7E7
:10017000F7FF01F051FE00F04FF803B4FFF7F2FF74
:1001800003BC00F057F800000948804709480047C1
:10019000FEE7FEE7FEE7FEE7FEE7FEE7FEE7FEE737
:1001A000FEE7FEE704480549054A064B7047000094
:1001B000F91C0008ED000008280100202807002095
:1001C00028030020280300207047704770477546B9
:1001D00000F02CF8AE4605006946534620F00700B3
:1001E000854618B020B5FFF7DDFFBDE820404FF091
:1001F00000064FF000074FF000084FF0000BAC4630
:10020000ACE8C009ACE8C009ACE8C009ACE8C0097A
:1002100021F007018D46704710B50446AFF300800A
:100220002046BDE81040FFF7A8BF00000048704717
:100230003000002001491820ABBEFEE72600020076
:1002400070470000FEE7000070470000014690F88C
:100250002100022816D10868D1E90FC3026822F0F4
:100260000E020260026822F001020260012000FA20
:1002700003F2CCF8042081F821000020002281F84C
:1002800020207047042088630120002281F820206C
:100290007047000080B590F82110022924D102682F
:1002A000116821F00E0111602F211368C4F20201C0
:1002B0008A4240F20401C4F2020123F001031360F8
:1002C00016DD3023C4F202039A421DD04423C4F247
:1002D00002039A421CD05823C4F202039A421DD151
:1002E0004FF4803322E000BF04218163012080BDF0
:1002F0000823C4F202039A420ED01C23C4F2020364
:100300009A420BD1102311E04FF480730EE000BF2E
:100310004FF480530AE000BF012307E001F1680CAD
:100320004FF08073624508BF4FF480130B600121CA
:1003300080F82110426B002180F820100AB190470C
:100340000021084680BD0000B0B5044600F02CF93D
:10035000054640F22000C2F200000078611C18BF80
:10036000044400BF00F020F9401BA042FAD3B0BD06
:100370002DE9F04F82B00E68002E00F0038141F2AB
:100380000042C4F20102042340F2004E904208BF32
:1003900003234FF6FF7CC4F2010E009300240123D7
:1003A000C1F2100C4FF0000A4FF0000949E000BF05
:1003B000012704F00C030F229A402BEA020207FAED
:1003C00003F34FEA9A051A4346F82520D1F804B002
:1003D00040F20C455FEACB22DEF8082054BF22EA47
:1003E000080242EA0802C4F20105CEF808202A6891
:1003F0005FEA8B2354BF22EA080242EA08022A601D
:100400005FEA8B33DEF8042054BF22EA080242EA96
:1004100008025FEACB33CEF80420DEF800204FF06C
:10042000010354BF22EA080242EA0802CEF8002083
:100430000E680AF1010A36FA0AF204F1040400F027
:10044000A18003FA0AF816EA080FF1D04E68664553
:1004500012DC122E56D8DFE806F0350B454955550B
:1004600055555555555555555555554D510000BF88
:10047000D1F80C9046E000BF4FF6FF72C1F22102A6
:1004800096420FDC0022C1F2110296421AD00022DD
:10049000C1F21202964215D00022C1F22102964208
:1004A00010D02FE00022C1F2220296420AD0002290
:1004B000C1F23102964205D00022C1F232029642C8
:1004C00020D100BF8A684AB1012A14BFC0F8148045
:1004D000C0F810804FF0080914E000BF4FF0040985
:1004E00010E000BFCA6802F108090BE04FF00009F4
:1004F00008E000BFCA6802F1040903E0CA6802F11B
:100500000C0900BF22460646BAF1080F24BF203A64
:10051000043637680F25954027EA050509FA02F2E7
:100520002A433260CA79D2067FF582AF41F21803BE
:10053000C4F202031A68AEF57E7642F001021A6038
:100540001A6802F001020192019A2AF0030256F899
:1005500002B040F60002C4F20102904210D040F610
:100560000042C4F2010290423FF422AF41F2000285
:10057000C4F20102009F904208BF022719E700BFA2
:10058000002716E702B0BDE8F08F0000C26802EA5B
:100590000103914341EA034101617047002A08BF0A
:1005A000090401617047000040F22410C2F200000B
:1005B0000068704740F2200040F22411C2F20000AF
:1005C000C2F2000100780A68104408607047000019
:1005D00080B542F20000C4F20200016841F010014F
:1005E0000160032000F08EF80F2000F005F800F005
:1005F00027F8002080BD000070B540F22006C2F24E
:10060000000640F228013278C2F200014FF47A73FA
:100610000968B3FBF2F20446B1FBF2F1084600F0C0
:1006200079FB0F2C4FF0010508D838B94FF0FF3097
:1006300021460022002500F039F87460284670BD7C
:1006400082B041F21800C4F202000168022241F0B7
:1006500001010160016801F0010101910199416806
:1006600041F080514160406800F080500090009857
:100670000420C4F20100016862F31A61016002B053
:1006800070470000002848BF7047C1B200F01F004B
:10069000012202FA00F04EF20012CEF2000242EA0B
:1006A000D10121F0030108607047000010B54EF63B
:1006B0000C5CCEF2000CDCF80030C3F3022E8EF09E
:1006C0000704042C28BF0424BEF103034FF0FF3EAF
:1006D0000EFA04F438BF0023A14399400EFA03F345
:1006E0009A43114300F00F0200F160430901043AFC
:1006F00003F564436244002848BF02F10C031970FB
:1007000010BD00004EF60C51CEF200010A684FF603
:10071000FF031A4060F30A2242F0806040F0FD704F
:1007200008607047704700002DE9F04381B0002851
:1007300000F0858042F20008C4F202080446D8F8AE
:1007400000000D4600F0070088420CD2D8F80000E7
:1007500020F007002843C8F80000D8F8000000F097
:100760000700A8426BD1206841F204098107C4F256
:10077000020917D5410705D5D9F8001041F4E06109
:10078000C9F80010010705D5D9F8001041F46051EF
:10079000C9F80010D9F80010A26821F0F001114347
:1007A000C9F80010C00741D1D8F8000000F00700D8
:1007B000A8420CD9D8F8000020F007002843C8F858
:1007C0000000D8F8000000F00700A84237D12068E8
:1007D000410707D5D9F80010E26821F4E061114320
:1007E000C9F80010000708D5D9F80000216920F4E5
:1007F000605040EAC100C9F80000D9F8002002F0BA
:100800000C00082841F20020C0F27A0050D142F2D8
:10081000E223C2F38341C0F60003595CD2033BD408
:1008200040F60010C0F23D00484341E060680228F5
:100830000AD001282AD159F8041C890308D40120C0
:1008400001B0BDE8F08300BF59F8041C8901F6D55A
:10085000D9F8001021F003010843C9F80000FFF7A0
:10086000A3FE064641F28837D9F80000616800F01F
:100870000C00B0EB810F97D0FFF796FE801BB842BB
:10088000F2D9032001B0BDE8F08300BF59F8041C81
:100890008907D4D5DCE700BFD9F8002042F2E02375
:1008A000C2F34042C0F600039A5C4843B0FBF2F04A
:1008B000D9F8001042F2C822C1F30311C0F60002B9
:1008C000515C40F2280220FA01F140F22400C2F209
:1008D00000000068C2F200021160FFF78DFE0020E8
:1008E00001B0BDE8F08300004C20C4F24220012199
:1008F0000160704740F2280041F20401C2F200009A
:10090000C4F202010068096842F2D822C1F3022150
:10091000C0F60002515CC8407047000040F2280059
:1009200041F20401C2F20000C4F202010068096849
:1009300042F2D822C1F3C221C0F60002515CC84085
:100940007047000010B541F20804C4F202042068A8
:10095000000658BF10BDFFF7E5FE8020A07010BD57
:100960002DE9F04182B0002868D00446007841F2B9
:100970000006C007C4F2020625D0706800F00C0023
:1009800004281BD0706800F00C00082802D17068A1
:10099000C00313D46068002800F06881B0F5A02F70
:1009A00000F07C81B0F5803F00F07C81306820F45D
:1009B00080303060306820F4802076E13068800339
:1009C00001D56068D0B32078800718D5706810F022
:1009D0000C0F07D0706800F00C0008286ED170680A
:1009E000C0036BD43068800702D52069012825D167
:1009F0003068616920F0F80040EAC100306020787A
:100A000000071FD42078400732D4E56995B170689B
:100A100000F00C00082840F08F80012D0ED0706887
:100A2000216A00F480328A4208D1616A00F47010B1
:100A3000884203D1002002B0BDE8F081012002B05D
:100A4000BDE8F081A069002862D00020C4F24220F5
:100A50000121C0F88014FFF7A7FD0546706A8007E2
:100A600000F18C80FFF7A0FD401B0228F6D92AE197
:100A7000F06910F0805808D1F06940F08050F061C2
:100A8000F06900F080500090009847F20007C4F22F
:100A900000073868C00529D4386840F48070386091
:100AA000FFF782FD054600BF3868C0051ED4FFF77A
:100AB0007BFD401B6428F7D905E100BF20690028B1
:100AC00040F20000C4F2422000F082800121016067
:100AD000FFF76AFD054600BF306880073FF588AF25
:100AE000FFF762FD401B0228F6D9ECE0E068002821
:100AF00000F08080052800F09780012800F09880A1
:100B0000306A20F001003062306A20F0040092E088
:100B10000020C4F242200021C0F88014FFF744FDF9
:100B2000054600BF706A80077FF56CAFFFF73CFD9C
:100B3000401B0228F6D9C6E00027C4F24227002055
:100B40003866FFF731FD022D05460BD13068800174
:100B500040F1BE80FFF728FD401B02284FF0030044
:100B6000F4D968E7306880017FF564AFFFF71CFDBA
:100B7000401B02284FF00300F4D95CE740F2280044
:100B8000C2F20000006844F6D351C1F26201A0FB3A
:100B90000101480A019000BF00BF0198411E0028D2
:100BA00001913FF42FAF00BF0198411E0028019131
:100BB0003FF428AF00BF0198411E002801913FF487
:100BC00021AF00BF0198411E00280191E4D119E72F
:100BD00000210160FFF7E8FC054600BF3068800790
:100BE0007FF50DAFFFF7E0FC401B02284FF003003C
:100BF000F4D920E7306A20F001003062306A20F03A
:100C000004003062FFF7D0FC054641F2883700BF90
:100C1000306A800720D5FFF7C7FC401BB8424FF071
:100C20000300F5D907E700BF306A40F004003062E6
:100C3000306A40F001003062FFF7B6FC054641F231
:100C4000883700BF306A800706D4FFF7ADFC401B31
:100C5000B842F7D937E000BFB8F1000F7FF4D5AE46
:100C6000F06920F08050F061CFE600BF306820F4DA
:100C700080303060306820F480203060FFF794FCD2
:100C8000054600BF306880037FF59DAEFFF78CFC02
:100C9000401B64284FF00300F4D9CCE6306840F4E0
:100CA00080203060306840F480303060FFF77CFC9A
:100CB000054600BF306880033FF585AEFFF774FC42
:100CC000401B6428F6D9032002B0BDE8F08100BFC4
:100CD000206AB0F5803F05D17168A26821F4003127
:100CE000114371607168626A21F474111143084301
:100CF000706001203866FFF757FC044630688001B9
:100D00003FF598AEFFF750FC001B02284FF00300A0
:100D1000F4D990E6411E0020B0EB116F1CBF0120FA
:100D200070474EF21002CEF2000251604EF623518F
:100D3000CEF20001F0230B70072190601160704724
:100D400010B590F83C20012A4FF0020233D080F811
:100D50003D200268D2F804E0D2F808C00C682EF0FA
:100D60007003234340F2FF74C4F20004A2425360B4
:100D70000ADCB2F1804F13D040F20043C4F200030A
:100D80009A420DD011E000BF42F60043C4F20103C5
:100D90009A4205D040F60003C4F200039A4204D1FF
:100DA00049682CF08003194391600121002280F8EA
:100DB0003D1080F83C20104610BD000080B586B084
:100DC00000680021B0F1804F049101D006B080BDD1
:100DD00041F21800C4F20200016841F00401016010
:100DE000006802A900F00400019001984FF400404F
:100DF000029002200390059040F60000C4F201002A
:100E0000FFF7B6FA0420C4F2010001684FF6FF4272
:100E1000CFF6FF02114041F0E06141F480710160C2
:100E200006B080BD2DE9F04390F83C30012B04BFA3
:100E30000220BDE8F0834FEAB202032A3CD8DFE883
:100E400002F0034381BD00BF036842F600461D6AFD
:100E50001A6AC4F2010622F001021A621A465C689C
:100E600052F818CFB3428E68D1F800E025F00205A1
:100E700045EA06050CD1CE68D1E9057824F4407422
:100E800025F00C0526F004063C43354344EA0804EB
:100E90002CF0730747EA0E075C609F614F68096991
:100EA0005F631D629F6947F008079F619F6927F094
:100EB00004079F61B2E000BF0121002280F83C20BE
:100EC0000846BDE8F08300BF036842F600461D6A8D
:100ED0001A6AC4F2010622F010021A621A46D3F806
:100EE00004C052F8184FB3428E68D1F800E025F0E4
:100EF000200545EA061510D1CE68D1E9058725F011
:100F0000C0096FF0400505EA06152CF4406647EA73
:100F1000080745EA090546EA870C24F4E64444EA52
:100F20000E27C3F804C09F614F6809699F631D6263
:100F30009F6947F400679F619F6927F480679F61FD
:100F40006BE000BF036842F600461D6A1A6AC4F2ED
:100F5000010622F480721A621A46D3F804C052F8CD
:100F60001CEFB3428E680C6825F4007545EA06252F
:100F700011D1CE68D1E9058725F44069360240F2E7
:100F8000FF4526EA05052CF4405647EA080745EADE
:100F9000090546EA071C2EF073072743C3F804C06F
:100FA000DF614F680969DF631D62DF6947F0080789
:100FB000DF61DF6927F00407DF612FE0036842F695
:100FC0000047D3F820C01A6AC4F2010722F4805205
:100FD0001A621A465C6852F81C5FD1F800E08E680D
:100FE000BB4204D14F6924F4804444EA87142CF4B2
:100FF000005747EA063725F4E64646EA0E265C60C7
:10100000DE614E6809691E641F62DF6947F400678C
:10101000DF61DF6927F48067DF6109021368194324
:1010200011600021002280F83C200846BDE8F083D2
:10103000002804BF0120704710B5044690F83D0019
:1010400028B9002084F83C00204600F067F8022010
:1010500084F83D00206840F2FF730268C4F2000388
:1010600042F6004C9842C4F2010C15DCB0F1804FFE
:101070001AD040F20041C4F20001884214D09842D4
:1010800018DCB0F1804F1DD040F20041C4F20001E5
:10109000884217D01AE000BF604505D040F6000135
:1010A000C4F200018842EAD1A16822F070020A432A
:1010B0009842E6DD604505D040F60001C4F200012B
:1010C000884203D1216922F440720A43A36922F0C5
:1010D0008001D4F804E0E268194360450160C2620F
:1010E000C0F828E002D16169CCF8301001214161DB
:1010F000002084F8461084F83E1084F83F1084F8ED
:10110000401084F8411084F8421084F8431084F8A9
:10111000441084F8451084F83D1010BD81B000687B
:10112000B0F1804F02D001B0704700BF41F21C0007
:10113000C4F20200016841F001010160006800F0A2
:1011400001000090009801B07047000041B10829EB
:1011500010D0042914BF00F1410200F13F020BE05E
:1011600090F83E20012A1CBF01207047022280F81F
:101170003E2013E000F140021278012A1CBF01203A
:1011800070470222082907D0042914BF80F84120A3
:1011900080F83F2002E000BF80F84020006801F0A6
:1011A0001F010122036A8A4023EA02010162036AE5
:1011B00042F64441C4F201011A43A1F144039842AA
:1011C00002620FD040F2FF71C4F20001884213DCCA
:1011D000B0F1804F1CD040F20041C4F200018842BF
:1011E00016D01CE00A6842F400420A6040F2FF7127
:1011F000C4F200018842EBDD42F60041C4F2010175
:10120000884205D040F60001C4F20001884206D1B0
:10121000816801F00701062904BF002070470168BA
:1012200041F001010160002070470000704700009C
:1012300070470000B0B582B0044600680168C3681A
:10124000426901F02F05202D03F0200506D12DB1B4
:10125000204602B0BDE8B04000F056BD5FEA017C18
:101260001EBF02F0010E03F4907212EB0E0253D176
:10127000226B012A05D111F0100218BF13F01002E1
:1012800036D10A0622D513F080021FD094F84110FF
:1012900021293FD1A168B1F5805F03D121690029DF
:1012A00000F07082216A4A1C226209784160E18C58
:1012B00001390A04E1842DD1C16821F08001C160A7
:1012C000C16841F04001C16002B0B0BD490621D5FE
:1012D00013F040011ED0C16821F04001C1602021FF
:1012E000204684F8411002B0BDE8B04000F0F4BCE4
:1012F00000210191016801914168019101994069C2
:10130000400613D4A08DE18DE28D002A18BF8842DB
:1013100040F0BA8102B0B0BDCA0718BF13F48072A2
:1013200040F0B6804A0700F1B980BEE0E06B01688A
:1013300049688AB2002AEDD0A38D9A42EAD2E185AB
:101340008069202800F09C80206850E8030F216805
:1013500020F4807041E80302DAB1206850E8030FFE
:10136000216820F4807041E8030292B1206850E8BF
:10137000030F216820F4807041E803024AB120681D
:1013800050E8030F216820F4807041E80302002A2E
:10139000DAD1206850E8050F216820F0010041E80B
:1013A0000502DAB1206850E8050F216820F001003D
:1013B00041E8050292B1206850E8050F216820F04D
:1013C000010041E805024AB1206850E8050F216894
:1013D00020F0010041E80502002ADAD1206850E837
:1013E000050F216820F0400041E80502DAB12068CD
:1013F00050E8050F216820F0400041E8050292B155
:10140000206850E8050F216820F0400041E80502FF
:101410004AB1206850E8050F216820F0400041E8FB
:101420000502002ADAD1202084F84200002020633F
:10143000206850E8030F216820F0100041E8030203
:10144000DAB1206850E8030F216820F0100041E86D
:10145000030292B1206850E8030F216820F01000C9
:1014600041E803024AB1206850E8030F216820F0E8
:10147000100041E80302002ADAD1E06BFEF7E6FE35
:1014800002206063A08DE18D401A81B2204674E194
:10149000626C42F0010262644A0706D5BEF1000F99
:1014A00003D0626C42F0020262648A0706D5BEF184
:1014B000000F03D0626C42F004026264BCF1000FC2
:1014C00009D545EA0E02B2FA82F2520903D1626CE2
:1014D00042F008026264626C002A3FF41BAF11F014
:1014E000200118BF002D03D0204600F00DFC20681D
:1014F0004069616C00F0400001F00801401800F004
:10150000B58000BF206850E8030F216820F4907078
:1015100041E80302BAB3206850E8030F216820F4C1
:10152000907041E8030272B3206850E8030F21680D
:1015300020F4907041E803022AB3206850E8030FBA
:10154000216820F4907041E80302002ADAD11AE001
:10155000206850E8050F216820F0010041E80502ED
:10156000DAB1206850E8050F216820F0010041E859
:10157000050292B1206850E8050F216820F00100B3
:1015800041E805024AB1206850E8050F216820F0C3
:10159000010041E80502002ADAD1206B012824D19C
:1015A000206850E8030F216820F0100041E8030292
:1015B000DAB1206850E8030F216820F0100041E8FC
:1015C000030292B1206850E8030F216820F0100058
:1015D00041E803024AB1206850E8030F216820F077
:1015E000100041E80302002ADAD1202084F84200EA
:1015F000002020632068406940063FD5206850E8FD
:10160000050F216820F0400041E80502DAB12068AA
:1016100050E8050F216820F0400041E8050292B132
:10162000206850E8050F216820F0400041E80502DD
:101630004AB1206850E8050F216820F0400041E8D9
:101640000502002ADAD1E06BC0B141F6FD41C0F6D7
:1016500000014163FEF71EFE00283FF45BAEE06B25
:10166000416B02B0BDE8B040084700BF2046FFF71D
:10167000DFFD0020606402B0B0BD00BF204602B0B4
:10168000BDE8B040FFF7D4BD401A216851E8031F00
:10169000226821F4907142E80313DBB1216851E81C
:1016A000031F226821F4907142E8031393B121686B
:1016B00051E8031F226821F4907142E803134BB1F3
:1016C000216851E8031F226821F4907142E8031356
:1016D000002BDAD1216851E8051F226821F00101B1
:1016E00042E80513DBB1216851E8051F226821F0AB
:1016F000010142E8051393B1216851E8051F2268F2
:1017000021F0010142E805134BB1216851E8051FA2
:10171000226821F0010142E80513002BDAD12021D3
:1017200084F8421000212163216851E8031F2268D8
:1017300021F0100142E80313DBB1216851E8031FD7
:10174000226821F0100142E8031393B1216851E8A7
:10175000031F226821F0100142E803134BB12168F6
:1017600051E8031F226821F0100142E80313002B07
:10177000DAD1022281B22046626302B0BDE8B040F5
:10178000FFF754BD216A31F8022B6FF35F224260EC
:1017900021628CE5002804BF0120704710B5044683
:1017A00090F8410028B9002084F84000204600F05D
:1017B00063F8242084F841002068D4E90212C36849
:1017C00023F40053C360036923F440531A430261B6
:1017D000D4E904231143C268194341F20C639A43CC
:1017E0001143C1604169A26921F44071114343F67C
:1017F0000002C4F201029042416103D0FFF77AF87F
:1018000002E000BFFFF78AF862681921484391009F
:10181000B0FBF1F048F21F51C5F2EB11A0FB012320
:101820005A094FF69C73C0F6FF7302FB0300322384
:1018300003EB0010A0FB0101F02303EA5113206821
:1018400003EB0212C1F3431111448160016921F4D9
:1018500090410161416921F02A014161C16841F46F
:101860000051C16000202021606484F8411084F898
:101870004210606310BD000070B586B040F60004F1
:10188000C4F20104006804F5405100268842049621
:1018900002D006B070BD00BF41F21800C4F20200D1
:1018A000016802AD41F480410160016801F48041AA
:1018B00001910199016841F0040101600068294625
:1018C00000F00400019001984FF400700290022093
:1018D0000390032005902046FEF74AFD4FF48060F8
:1018E000CDE90206204629460496FEF741FD252053
:1018F00000210022FEF7DAFE2520FEF7C3FE06B027
:1019000070BD000090F84230202B1CBF02207047B1
:1019100000294FF0010318BF002A01D11846704773
:1019200000230363816222218285C285436480F89B
:1019300042100169006819B1C16841F48071C16049
:101940004169002341F001014161C16841F020017A
:10195000C1601846704700002DE9F04140F2900444
:10196000C2F2000440F200072078C2F20007397882
:10197000252808BF302913D0312921D130213970D1
:101980006178A0F130020A2A7870B9702AD200EB8F
:10199000800001EB4000A0F50470B86023E000BFB8
:1019A0003120251D3870284621460222FFF7AAFF64
:1019B0002846214601226423BDE8F04100F050B8DA
:1019C000251D07F1100128461022642300F048F875
:1019D000284621460122FFF795FF30203870BDE8E8
:1019E000F08100BFB8684AF22011C0F2070191FBF4
:1019F000F0F040F22C080138C4F20008F860C8F892
:101A00000000F868013000F04AFB41F27B4547F6E0
:101A1000E126C4F2AE75C3F684762A46334600F05A
:101A200055FB00F00FFBC8F80800F868013000F023
:101A300036FB2A46334600F049FB00F003FB251D28
:101A4000C8F80C00F91C28460322642300F008F8AB
:101A5000284621460122BDE8F041FFF753BF0000B0
:101A60002DE9F04381B0044690F84100202840F071
:101A7000B180884600294FF0010000F0D68016465C
:101A8000002A00F0D2800020606421201D4684F8E6
:101A90004100FEF789FDA684E684A1680646B1F5FB
:101AA000805F03D12069002800F0988047464FF0FE
:101AB0000008E18C2068002900F0968005F10109FA
:101AC0000BE000BF47B317F8011B4160E18C0139FF
:101AD000E184E18C002900F0878001680906F1D4D7
:101AE000B9F1000F0AD0EDB1FEF75EFD801BA842F0
:101AF00018D8206801680906F6D5E3E701680906E9
:101B0000E0D4016809065CBF01685FEA0161D9D4CD
:101B100001680906F2D5D5E738F8021B00276FF3F4
:101B20005F21D2E7206850E8030F216820F4D070CD
:101B300041E80302BAB3206850E8030F216820F49B
:101B4000D07041E8030272B3206850E8030F2168A7
:101B500020F4D07041E803022AB3206850E8030F54
:101B6000216820F4D07041E80302002ADAD11AE09B
:101B7000206850E8050F216820F0010041E80502C7
:101B8000DAB1206850E8050F216820F0010041E833
:101B9000050292B1206850E8050F216820F001008D
:101BA00041E805024AB1206850E8050F216820F09D
:101BB000010041E80502002ADAD1202084F8410022
:101BC00084F84200002084F84000032001B0BDE802
:101BD000F08300BF022001B0BDE8F0830027E18C54
:101BE000206800297FF46AAF0168490619D4FDB165
:101BF000691C0DD10168490613D4016849065CBF10
:101C000001685FEA41610CD401684906F2D508E039
:101C1000FEF7CAFC801BA8420AD82068006840066C
:101C2000F6D5202084F84100002001B0BDE8F08303
:101C3000206850E8030F216820F4D07041E80302C7
:101C4000002A3ED0206850E8030F216820F4D070AD
:101C500041E80302AAB3206850E8030F216820F48A
:101C6000D07041E8030262B3206850E8030F216896
:101C700020F4D07041E80302002AD9D121E000BF4E
:101C8000206850E8050F216820F0010041E80502B6
:101C9000002A3FF492AF206850E8050F216820F039
:101CA000010041E80502002A3FF487AF206850E8B0
:101CB000050F216820F0010041E80502002A3FF4E9
:101CC0007CAF206850E8050F216820F0010041E852
:101CD0000502002AD4D170E770470000FEE700003B
:101CE000FEE70000FEF72EFEFEE700007047000052
:101CF00070470000FEF75EBC70470000406A00219C
:101D0000C185C184FFF794BA81B090F842102229AE
:101D100021D183680246B3F5805F09D152F8281FAC
:101D200052F8183C002B63D003685B680AE000BFE0
:101D300052F8281F13B90369002BF5D003685B68BC
:101D400003F07F030B70116801311160C18D0139FF
:101D50000A04C18502D001B0704700BF0168CA689B
:101D600022F02002CA60CA6822F48072CA604A69FE
:101D700022F001024A61202180F8421000214163D3
:101D8000026B012A3CD10163016851E8031F02681C
:101D900021F0100142E80313DBB1016851E8031F91
:101DA000026821F0100142E8031393B1016851E881
:101DB000031F026821F0100142E803134BB10168D0
:101DC00051E8031F026821F0100142E80313002BC1
:101DD000DAD101680A68D20606D5002200920A68A4
:101DE0000092496800910099818D01B0FFF71EBAF9
:101DF000026852686FF35F2221F8022B8162A5E727
:101E000001B0FFF7A9BD000040F29400C2F200004B
:101E1000FFF710BAFEE7000090B0FEF7D9FB4FF4D1
:101E2000803000240125079006A8CDE90E44CDE9B5
:101E30000C44CDE90A44CDE908440695FEF790FD2F
:101E400020B1EFF3108072B6FEE700BF0F20CDE99E
:101E50000005A02002904FF4A060CDE9030468467D
:101E60000021FEF761FC28B1EFF3108072B600BFCD
:101E7000FEE700BF40F60009C4F20109FEF734FD99
:101E800041F21800C4F20200016809F5006441F053
:101E9000100101600168002201F01001069106990D
:101EA00001684FF4005641F02001016001680027ED
:101EB00001F0200106910699016841F004010160DA
:101EC000016801F0040106910699016841F00801DA
:101ED000016000684FF4005100F008000690069879
:101EE0002046FEF75BFB4846182100224FF01808F9
:101EF000FEF754FB069606AE4FF0010A0225204677
:101F00003146CDE907A70995FEF732FA032006907E
:101F10000020C1F21100CDE9070548463146FEF721
:101F200027FA48463146CDE9068ACDE90855FEF73D
:101F30001FFA40F29005C2F2000509F5405128460B
:101F400040F8041F4FF416510C22C0E90117C0E9F4
:101F50000377C0E90527C761FFF71CFC20B1EFF349
:101F6000108072B6FEE700BF40F2DC00C2F2000053
:101F70004FF080414CF24F32CDE90077CDE90B773D
:101F8000CDE90977C0E90017C0E9027207618761EE
:101F9000FFF74EF820B1EFF3108072B6FEE700BFF6
:101FA00040F2DC00C2F200006946FEF7C9FE28B12B
:101FB000EFF3108072B600BFFEE700BF602006900E
:101FC0000020CDE907000A9040F2DC00C2F20000D8
:101FD00006A90022FEF726FF20B1EFF3108072B6AB
:101FE000FEE700BF40F2DC06C2F2000606A930465A
:101FF0000422FEF717FF28B1EFF3108072B600BF7E
:10200000FEE700BF3046FEF7D9FE281D2946012213
:10201000FFF778FC306846F2A811416381633046CF
:102020000021FFF793F830460421FFF78FF800BF37
:1020300020464FF40051FEF7A9FA3220FEF784F94A
:10204000F6E700004FEA1153A3F58063D3F11E03B6
:10205000A8BFD3F1200C08DB4FF0004242EAC122B6
:1020600052EA505232FA03F0704709420BD4102B57
:10207000C4BF0020704703F5787CBCF1FF3F05D05A
:102080004FF0FF3070474FF00000704770B500F020
:10209000C7F800BF4992248000207047F0E710F095
:1020A000004248BF4042B0FA80F310FA03F10AD070
:1020B000C3F11D0303F5806302EB03524FEA415065
:1020C00002EBD12170474FF00000704770B5DFF888
:1020D00048C11CEA111E1EBF1CEA13159EEA0C0F14
:1020E00095EA0C0F00F06F8081EA03044EEAD47E7B
:1020F000AE4421EA4C1123EA4C1341F4801143F41D
:102100008013AEF17F7EA1FB024CA0FB0365361964
:1021100055EB0C05A1FB034C4CF10003A0FB021C8A
:1021200016EB0C06654153F10003094218BF46F057
:10213000010613F4007F0BD14FEA03314FEA05305B
:1021400041EA155140EA165034036FF003020AE0E9
:102150004FEAC3214FEAC52041EA555140EA5650A3
:10216000F4026FF0020202EB2E4201EB025585EA07
:10217000CE710AD05FEA440C18BF24F0004450F13D
:10218000000041F1000120EAD47040F2FE7C62457B
:1021900000D270BDA84214BF4FF080444FF04044BD
:1021A000002E08BF0024BEF1806FA8BFA1F1C0417E
:1021B000BDE8704080F2828001F1C04101F0004131
:1021C0004FF0000070470CEA13159EEA0C0F18BF81
:1021D00095EA0C0F06D081EA030E4FF000000EF0D6
:1021E000004170BD00F01CF88900013E00F007B806
:1021F00000F009B84FEA430C5FEA5C5C08D081EA62
:10220000030100F05BB84FEA410C5FEA5C5CF6D179
:1022100002494FF0000070470000FF070000F87F00
:102220000EF1020E2EF0030E5EF8046B364205D45A
:10223000012A43EB030515F5001F12D8012841EBD5
:10224000010C1CF5001F0CD80ED14FEAD17C0CEB11
:102250004C0C0CF1020C15F5001F08BF4CEBD37CA5
:1022600004E04FF0080C01E04FEAD37C0CEB4C0586
:1022700026FA05F606F00706B6F1040C06D20EEBB8
:10228000860CBDE870404CF0010C6047DFE80CF0B4
:10229000090B02024FF00041A1F500214FF00000B0
:1022A00070BD19461046012851EB010418BFD4F542
:1022B000001484BF002001F0004170BD0808A0F5A3
:1022C00000114FEA310170470000000000000000DB
:1022D00001020304060708090000000001020304CC
:1022E000010202030405060708090A0B0C0D0E0F74
:1022F000101000001823000800000020300000002B
:10230000280100084823000830000020F8060000DB
:1023100044010008000000003031304F4B00000045
:102320000A0000004FC300004E6F742041636365D4
:10233000707461626C6521000100000010000000F3
:082340000024F400000000007D
:04000005080000ED02
:00000001FF
